:020000040000fa
:080000000001040000000000f3
:020000040000fa
:10020000cfcf20000eff20000e018800000000006c
:100210000c000700a092260001002000110007003a
:10022000000020000000e000020032000000020098
:1002300000000000ba380200000000000040da00b0
:100240000000fe004440a900a06023000000e00080
:100250000300320000002000a00188004440a800f4
:100260000000060091018800800078000000eb008b
:1002700015003700e280400032a0b4009101ba00be
:10028000e280400032a0b4009102ba00e280400057
:1002900032a0b4000002eb00472bde00f507b200ed
:1002a000602ce10004003a000059eb008301e900f2
:1002b000fdff3e00040037006128e100010032002c
:1002c0000082eb00040007001101ba000200e00008
:1002d000e8ff3a00000006003159ba008301e90046
:1002e0000c0032002159ba008301e90008003200f5
:1002f0000400e00003003a00e280400032a0b400b5
:10030000f5ff370011d9ba008301e900faff3a007e
:100310008100e800e180400032a0b4000000060047
:100320000040da000000fe003200f8009101880071
:100330000008bb00410424006210e1000400320008
:10034000000220000010e1000a003a0051042400dd
:10035000013b88000500fc0051052000313b88006e
:10036000a10a2000313b880061e7a80000000000de
:10037000000000003200f900000006003200f80022
:1003800060042400003b8800f2ff37003200f800d0
:100390009101880041002400013b88000208bb0055
:1003a000ecff37003200f800910188005100240072
:1003b000013b8800030120003218bb008301e900e3
:1003c000fdff3a00e3ff37003200f800910188009a
:1003d0008002780062004000e08048003549ba00a1
:1003e0003204e0000410a700100032008301e9008d
:1003f0000e0032002549ba003204e0000410a700c4
:100400000a0032008301e900080032000408a3005a
:10041000eeff320015c9ba003204e0000410a70054
:10042000020032008301e900e8ff3a003200f900df
:1004300000000600839f68000100e00002003d000c
:1004400060001000e08018000300e00002003d00a2
:1004500060011100e0811900050007004f00e00075
:1004600002003b0060001000e08018000000060061
:100470006022b800060220000000d0008180d20077
:100480000482d2008582d2000000a0000202520045
:1004900083825a00030031000202420083824a0034
:1004a0000000a1000603e900f3ff3a000000060087
:1004b0000001780000c2b300010037000201e8002b
:1004c0009240780080cf5000fcff3200e9cf50000e
:1004d000faff3200d0c2b30080cf500003003a00d0
:1004e0000201e80014c0b300050037000042eb0031
:1004f000b0c2b30080cf500001003a000201e80012
:100500008000eb0005fd2f00040037006a08b900e9
:1005100000804100850040000201e8009201fb00dc
:1005200005804100e90f5000f8ff36000404e000a8
:10053000010032008100ea0001007800000006009e
:1005400010417800b141510003003a000000e8007a
:100550000204e000faff3a000300fb00000006007e
:020000040000fa
:0200000401f009
:04000000f7ff000006
:020000040000fa
:0200000401f009
:04000400ff7f00007a
:020000040000fa
:0200000401f009
:04000800efff000006
:020000040000fa
:0200000401f009
:04001400ffff0000ea
:020000040000fa
:10000800900100007e570000705700006257000002
:10001800545700009001000090010000900100007a
:100028009001000090010000900100009001000084
:100038009001000090010000900100009001000074
:10004800900100009001000090010000f2380000cb
:100058009001000090010000900100003c46000063
:100068009001000090010000900100009001000044
:100078009001000090010000900100009001000034
:10008800d25700009001000090010000900100008c
:100098009001000090010000900100009001000014
:1000a8009001000090010000900100009001000004
:1000b80090010000900100009001000090010000f4
:1000c80090010000900100009001000090010000e4
:1000d80090010000900100009001000090010000d4
:1000e80090010000900100009001000090010000c4
:0800f8009001000090010000de
:020000040000fa
:10010800900100007e570000705700006257000001
:100118005457000090010000900100009001000079
:100128009001000090010000900100009001000083
:100138009001000090010000900100009001000073
:10014800900100009001000090010000f2380000ca
:100158009001000090010000900100003c46000062
:100168009001000090010000900100009001000043
:100178009001000090010000900100009001000033
:10018800d25700009001000090010000900100008b
:100198009001000090010000900100009001000013
:1001a8009001000090010000900100009001000003
:1001b80090010000900100009001000090010000f3
:1001c80090010000900100009001000090010000e3
:1001d80090010000900100009001000090010000d3
:1001e80090010000900100009001000090010000c3
:0801f8009001000090010000dd
:020000040000fa
:1005600003000000050d0000320000005e010000e5
:100570002a000000530100001b0200004503000098
:100580000500000012000000120000004b000000f7
:100590004b000000320000000000000000000000de
:1005a000770000001a00000004000000701700002f
:1005b000000000000001000000000000000000003a
:1005c000000000000000000000000000000000002b
:1005d000000000000000000000000000000000001b
:1005e000707f0000c77900001f740000766e000065
:1005f000ce68000025630000dc5e0000935a000016
:100600004b56000002520000b94d0000744a000031
:100610002f470000e9430000a44000005f3d0000b8
:10062000db3a000058380000d43500005133000098
:10063000cd300000da2e0000e82c0000f52a000082
:1006400003290000102700008b250000062400006d
:1006500082220000fd200000781f0000471e0000dd
:10066000151d0000e41b0000b31a000082190000f1
:10067000911800009f170000ae160000bd15000085
:10068000cc1400000c1400004c1300008d1200006c
:10069000cd1100000d11000074100000db0f0000f0
:1006a000410f0000a80e00000f0e0000930d000087
:1006b000180d00009d0c0000220c0000a60b00008d
:1006c000430b0000df0a00007b0a0000180a00004c
:1006d000b40900006309000012090000c10800000d
:1006e000700800001f080000dd0700009a070000e6
:1006f0005807000016070000d40600009d06000001
:100700006706000031060000fa050000c40500007d
:10071000970500006a0500003d0500001105000076
:10072000e4040000bf0400009a0400007404000008
:100730004f0400002a0400000b040000ec0300003a
:10074000cd030000ae03000090030000760300001c
:100750005c03000042030000280300000e030000b9
:10076000f9020000e3020000cd020000b802000020
:10077000a2020000900200007e0200006b02000056
:100780005902000047020000370200002802000062
:100790001902000009020000fa010000ed0100004a
:1007a000df010000d2010000c5010000b801000017
:1007b000ad010000a2010000970100008c010000c3
:1007c00080010000770100006d010000640100005d
:1007d0005a01000051010000470100007b14000095
:1007e00011110000a10e0000cd0c0000610b0000f3
:1007f0003d0a00004f09000089080000e0070000e2
:1008000050070000d406000066060000060600003f
:10081000b0050000640500001f050000e0040000b2
:10082000a80400007404000044040000190400003f
:10083000f0030000cb030000a803000088030000c1
:100840006a0300004e030000330300001a03000097
:1008500003030000ed020000d8020000c402000003
:10086000b2020000a00200008f0200007f02000020
:100870007002000062020000540200004702000003
:100880003a0200002e0200002202000017020000bf
:100890000c02000002020000f8010000ef0100005d
:1008a000e5010000dd010000d4010000cc010000e2
:1008b000c4010000bc010000b5010000ae01000051
:1008c000a7010000a00100009a01000093010000b0
:1008d0008d01000087010000820100007c01000002
:1008e00076010000710100006c010000670100004a
:1008f000620100005e010000590100005401000087
:10090000500100004c0100004801000044010000bb
:10091000400100003c0100003801000034010000eb
:10092000310100002d0100002a0100002701000014
:1009300023010000200100001d0100001a01000039
:100940001701000014010000110100000e01000059
:100950000b01000009010000060100000401000075
:1009600001010000ff000000fc000000fa00000090
:10097000f7000000f5000000f3000000f0000000a8
:10098000ee000000ec000000ea000000e8000000bb
:10099000e6000000e4000000e2000000e0000000cb
:1009a000de000000dc000000da000000d9000000da
:1009b000d7000000d5000000d3000000d2000000e6
:1009c000d0000000ce000000cd000000cb000000f1
:1009d000ca000000c8000000c7000000c5000000f9
:1009e000c4000000c2000000c1000000bf00000001
:1009f000be000000bd000000bb000000ba00000007
:100a0000b9000000b7000000b6000000b50000000b
:100a1000b4000000b2000000b1000000b00000000f
:100a2000af000000a6fe000035d40000e4b50000d1
:100a3000289f0000798d0000537f0000c0730000e4
:100a40001a6a0000f1610000f25a0000e25400004e
:100a5000944f0000e54a0000bc460000034300003c
:100a6000a93f0000a13c0000e03900005c37000015
:100a70000d350000ee320000f9300000282f000094
:100a8000792d0000e82b0000712a000012290000d7
:100a9000ca2700009526000073250000612400008d
:100aa0005e2300006922000082210000a6200000d1
:100ab000d51f00000e1f0000511e00009c1d0000ed
:100ac000f01c00004b1c0000ae1b0000171b0000b8
:100ad000871a0000fc19000077190000f7180000c1
:100ae0007c1800000618000094170000261700006c
:100af000bd16000056160000f41500009515000004
:100b000038150000df1400008914000036140000be
:100b1000e5130000971300004b13000001130000c1
:100b2000b91200007412000030120000ef11000032
:100b3000af1100007111000035110000fa10000023
:100b4000c110000089100000531000001e100000aa
:100b5000ea0f0000b80f0000870f0000570f0000d9
:100b6000280f0000fb0e0000ce0e0000a30e0000b8
:100b7000780e00004e0e0000260e0000fe0d000054
:100b8000d70d0000b10d00008c0d0000670d0000b6
:100b9000430d0000200d0000fe0c0000dc0c0000e6
:100ba000bb0c00009b0c00007c0c00005d0c0000e6
:100bb0003e0c0000200c0000030c0000e60b0000bf
:100bc000ca0b0000ae0b0000930b0000780b000076
:100bd0005e0b0000450b00002b0b0000120b000009
:100be000fa0a0000e20a0000ca0a0000b30a000084
:100bf0009c0a0000860a0000700a00005a0a0000e1
:100c0000450a0000300a00001b0a0000070a000025
:100c1000f2090000df090000cb090000b80900005c
:100c2000a509000093090000800900006e0900007a
:100c30005d0900004b0900003a0900002909000085
:100c40001809000008090000f7080000e708000084
:100c5000d8080000c8080000b9080000a908000072
:100c60009a0800008c0800007d0800000080000049
:100c7000f67f0000ec7f0000e27f0000d87f0000dc
:100c8000ce7f0000c57f0000bb7f0000b17f000069
:100c9000a87f00009e7f0000947f00008b7f0000f3
:100ca000817f0000787f00006e7f0000657f00007c
:100cb0005b7f0000527f0000497f00003f7f000003
:100cc000367f00002d7f0000247f00001b7f000086
:100cd000127f0000097f0000007f0000f77e000007
:100ce000ee7e0000e57e0000dc7e0000d37e00008a
:100cf000ca7e0000c17e0000b97e0000b07e000008
:100d0000a77e00009f7e0000967e00008e7e000081
:100d1000857e00007d7e0000747e00006c7e0000f9
:100d2000637e00005b7e0000537e00004a7e000070
:100d3000427e00003a7e0000327e00002a7e0000e3
:100d4000227e00001a7e0000127e00000a7e000053
:100d5000027e0000fa7d0000f27d0000ea7d0000c6
:100d6000e27d0000da7d0000d37d0000cb7d000035
:100d7000c37d0000bc7d0000b47d0000ad7d00009f
:100d8000a57d00009e7d0000967d00008f7d000007
:100d9000877d0000807d0000797d0000717d00006e
:100da0006a7d0000637d00005c7d0000557d0000d1
:100db0004d7d0000467d00003f7d0000387d000035
:100dc000317d00002a7d0000247d00001d7d000093
:100dd000167d00000f7d0000087d0000027d0000f0
:100de000fb7c0000f47c0000ee7c0000e77c00004f
:100df000e07c0000da7c0000d37c0000cd7c0000a9
:100e0000c67c0000c07c0000ba7c0000b37c0000ff
:100e1000ad7c0000a77c0000a17c00009a7c000053
:100e2000947c00008e7c0000887c0000827c0000a6
:100e30007c7c0000767c0000707c00006a7c0000f6
:100e4000647c00005e7c0000587c0000537c000045
:100e50004d7c0000477c0000427c00003c7c000090
:100e6000367c0000317c00002b7c0000267c0000da
:100e7000207c00001b7c0000157c0000107c000022
:100e80000a7c0000057c0000007c0000fa7b00006a
:100e9000f57b0000f07b0000eb7b0000e67b0000b0
:100ea000e17b0000dc7b0000d67b0000d17b0000f2
:100eb000cc7b0000c87b0000c37b0000be7b000031
:100ec000b97b0000b47b0000af7b0000aa7b000070
:100ed000a67b0000a17b00009c7b0000987b0000ab
:100ee000937b00008f7b00008a7b0000867b0000e4
:100ef000817b00007d7b0000787b0000747b00001c
:100f0000707b00006b7b0000677b0000637b000050
:100f10005e7b00005a7b0000567b0000527b000085
:100f20004e7b00004a7b0000467b0000427b0000b5
:100f30003e7b00003a7b0000367b0000327b0000e5
:100f40002e7b00002a7b0000267b0000237b000014
:100f50001f7b00001b7b0000187b0000147b00003f
:100f6000107b00000d7b0000097b0000067b000069
:100f7000027b0000ff7a0000fb7a0000f87a000094
:100f8000f57a0000f17a0000ee7a0000eb7a0000ba
:100f9000e77a0000e47a0000e17a0000de7a0000df
:100fa000db7a0000d87a0000d47a0000d17a000001
:100fb000ce7a0000cb7a0000c87a0000c57a000023
:100fc000c37a0000c07a0000bd7a0000ba7a00003f
:100fd000b77a0000b57a0000b27a0000af7a00005c
:100fe000ac7a0000aa7a0000a77a0000a57a000077
:100ff000a27a0000a07a00009d7a00009b7a00008f
:10100000987a0000967a0000937a0000917a0000a6
:101010008f7a00008c7a00008a7a0000887a0000bb
:10102000867a0000837a0000817a00007f7a0000cf
:101030007d7a00007b7a0000797a0000777a0000e0
:10104000757a0000737a0000717a00006f7a0000f0
:101050006d7a00006b7a00006a7a0000687a0000fe
:10106000667a0000647a0000637a0000617a00000a
:101070005f7a00005e7a00005c7a00005a7a000015
:10108000597a0000577a0000567a0000547a00001e
:10109000537a0000527a0000507a00004f7a000024
:1010a0004e7a00004c7a00004b7a00004a7a000029
:1010b000487a0000477a0000467a0000457a00002e
:1010c000447a0000437a0000427a0000417a00002e
:1010d000407a00003f7a00003e7a00003d7a00002e
:1010e0003c7a00003b7a00003a7a0000397a00002e
:1010f000397a0000387a0000377a0000367a00002a
:10110000367a0000357a0000347a0000347a000024
:10111000337a0000327a0000327a0000317a00001f
:10112000317a0000307a0000307a0000307a000016
:101130002f7a00002f7a00002f7a00002e7a00000c
:101140002e7a00002e7a00002d7a00002d7a000001
:101150002d7a00002d7a00002d7a00002d7a0000f3
:101160002d7a00002c7a00002c7a00002c7a0000e6
:101170002c7a00002c7a00002d7a00002d7a0000d5
:101180002d7a00002d7a00002d7a00002d7a0000c3
:101190002d7a00002e7a00002e7a00002e7a0000b0
:1011a0002e7a00002f7a00002f7a0000307a00009b
:1011b000307a0000307a0000317a0000317a000085
:1011c000327a0000327a0000337a0000337a00006d
:1011d000347a0000357a0000357a0000367a000053
:1011e000377a0000377a0000387a0000397a000038
:1011f0003a7a00003a7a00003b7a00003c7a00001c
:101200003d7a00003e7a00003f7a0000407a0000fc
:10121000417a0000427a0000437a0000447a0000dc
:10122000457a0000467a0000477a0000487a0000bc
:10123000497a00004a7a00004c7a00004d7a00009a
:101240004e7a00004f7a0000517a0000527a000076
:10125000537a0000557a0000567a0000577a000051
:10126000597a00005a7a00005c7a00005d7a00002a
:101270005f7a0000607a0000627a0000637a000002
:10128000657a0000677a0000687a00006a7a0000d8
:101290006c7a00006d7a00006f7a0000717a0000ad
:1012a000737a0000747a0000767a0000787a000081
:1012b0007a7a00007c7a00007e7a0000807a000052
:1012c000827a0000847a0000867a0000887a000022
:1012d0008a7a00008c7a00008e7a0000907a0000f2
:1012e000927a0000947a0000967a0000987a0000c2
:1012f0009b7a00009d7a00009f7a0000a17a00008e
:10130000a47a0000a67a0000a87a0000ab7a000058
:10131000ad7a0000af7a0000b27a0000b47a000023
:10132000b77a0000b97a0000bc7a0000be7a0000eb
:10133000c17a0000c37a0000c67a0000c87a0000b3
:10134000cb7a0000ce7a0000d07a0000d37a000079
:10135000d67a0000d87a0000db7a0000de7a00003e
:10136000e17a0000e37a0000e67a0000e97a000002
:10137000ec7a0000ef7a0000f27a0000f47a0000c4
:10138000f77a0000fa7a0000fd7a0000007b000086
:10139000037b0000067b0000097b00000c7b000043
:1013a0000f7b0000137b0000167b0000197b000000
:1013b0001c7b00001f7b0000227b0000267b0000be
:1013c000297b00002c7b00002f7b0000337b00007a
:1013d000367b0000397b00003d7b0000407b000035
:1013e000437b0000477b00004a7b00004e7b0000ef
:1013f000517b0000547b0000587b00005b7b0000a9
:101400005f7b0000637b0000667b00006a7b00005e
:101410006d7b0000717b0000757b0000787b000015
:101420007c7b0000807b0000837b0000877b0000ca
:101430008b7b00008e7b0000927b0000967b00007f
:101440009a7b00009e7b0000a27b0000a57b000031
:10145000a97b0000ad7b0000b17b0000b57b0000e4
:10146000b97b0000bd7b0000c17b0000c57b000094
:10147000c97b0000cd7b0000d17b0000d57b000044
:10148000d97b0000dd7b0000e17b0000e67b0000f3
:10149000ea7b0000ee7b0000f27b0000f67b0000a0
:1014a000fb7b0000ff7b0000037c0000077c00004a
:1014b0000c7c0000107c0000147c0000197c0000f3
:1014c0001d7c0000217c0000267c00002a7c00009e
:1014d0002f7c0000337c0000387c00003c7c000046
:1014e000407c0000457c0000497c00004e7c0000f0
:1014f000537c0000577c00005c7c0000607c000096
:10150000657c00006a7c00006e7c0000737c00003b
:10151000787c00007c7c0000817c0000867c0000e0
:101520008a7c00008f7c0000947c0000997c000085
:101530009e7c0000a27c0000a77c0000ac7c000028
:10154000b17c0000b67c0000bb7c0000c07c0000c9
:10155000c57c0000ca7c0000cf7c0000d47c000069
:10156000d97c0000de7c0000e37c0000e87c000009
:10157000ed7c0000f27c0000f77c0000fc7c0000a9
:10158000017d0000067d00000b7d0000107d000045
:10159000167d00001b7d0000207d0000257d0000e1
:1015a0002a7d0000307d0000357d00003a7d00007e
:1015b0003f7d0000457d00004a7d00004f7d00001a
:1015c000557d00005a7d00005f7d0000657d0000b4
:1015d0006a7d0000707d0000757d00007b7d00004d
:1015e000807d0000857d00008b7d0000907d0000e7
:1015f000967d00009b7d0000a17d0000a77d00007e
:10160000ac7d0000b27d0000b77d0000bd7d000014
:10161000c37d0000c87d0000ce7d0000d47d0000a9
:10162000d97d0000df7d0000e57d0000ea7d00003f
:10163000f07d0000f67d0000fc7d0000017e0000d2
:10164000077e00000d7e0000137e0000197e000062
:101650001e7e0000247e00002a7e0000307e0000f6
:10166000367e00003c7e0000427e0000487e000086
:101670004e7e0000537e0000597e00005f7e000019
:10168000657e00006b7e0000717e0000777e0000aa
:101690007e7e0000847e00008a7e0000907e000036
:1016a000967e00009c7e0000a27e0000a87e0000c6
:1016b000ae7e0000b47e0000bb7e0000c17e000054
:1016c000c77e0000cd7e0000d37e0000da7e0000e1
:1016d000e07e0000e67e0000ec7e0000f37e00006d
:1016e000f97e0000ff7e0000067f00000c7f0000f6
:1016f000127f0000197f00001f7f0000257f00007f
:101700002c7f0000327f0000397f00003f7f000007
:10171000457f00004c7f0000527f0000597f000091
:101720005f7f0000667f00006c7f0000737f000019
:10173000797f0000807f0000867f00008d7f0000a1
:10174000947f00009a7f0000a17f0000a77f000027
:10175000ae7f0000b57f0000bb7f0000c27f0000ad
:10176000c97f0000cf7f0000d67f0000dd7f000032
:10177000e37f0000ea7f0000f17f0000f77f0000b8
:10178000fe7f0000058000000c8000001380000038
:101790001980000020800000278000002e800000bb
:1017a000358000003b80000042800000498000003e
:1017b00050800000578000005e80000065800000bf
:1017c0006c800000738000007a8000008080000040
:1017d000878000008e800000958000009c800000c3
:1017e000a3800000aa800000b1800000b880000043
:1017f000c0800000c7800000ce800000d5800000bf
:10180000dc800000e3800000ea800000f18000003e
:10181000f8800000ff800000078100000e810000ba
:10182000158100001c810000238100002a81000036
:1018300032810000398100004081000047810000b2
:101840004e810000568100005d810000648100002f
:101850006c810000738100007a81000081810000aa
:101860008981000090810000978100009f81000025
:10187000a6810000ae810000b5810000bc8100009f
:10188000c4810000cb810000d2810000da81000019
:10189000e1810000e9810000f0810000f881000092
:1018a000ff810000078200000e8200001682000007
:1018b0001d820000258200002c820000348200007e
:1018c0003b820000438200004a82000052820000f6
:1018d000598200006182000069820000708200006d
:1018e000788200007f820000878200008f820000e3
:1018f000968200009e820000a6820000ad82000059
:10190000b5820000bd820000c4820000cc820000cd
:10191000d4820000db820000e3820000eb82000042
:10192000f3820000fa820000028300000a830000b4
:101930001283000019830000218300002983000026
:101940003183000039830000408300004883000099
:10195000508300005883000060830000688300000b
:1019600070830000778300007f830000878300007e
:101970008f830000978300009f830000a7830000ef
:10198000af830000b7830000bf830000c78300005f
:10199000cf830000d7830000df830000e7830000cf
:1019a000ef830000f7830000ff830000078400003e
:1019b0000f840000178400001f84000027840000ab
:1019c0002f840000378400003f840000478400001b
:1019d0004f840000578400005f840000678400008b
:1019e0006f840000788400008084000088840000f8
:1019f0009084000098840000a0840000a884000067
:101a0000b1840000b9840000c1840000c9840000d2
:101a1000d1840000da840000e2840000ea8400003f
:101a2000f2840000fa840000038500000b850000aa
:101a3000138500001b850000248500002c85000014
:101a4000348500003d850000458500004d8500007f
:101a5000558500005e850000668500006e850000eb
:101a6000778500007f850000878500009085000055
:101a700098850000a0850000a9850000b1850000c0
:101a8000ba850000c2850000ca850000d385000029
:101a9000db850000e4850000ec850000f485000093
:101aa000fd850000058600000e86000016860000f9
:101ab0001f86000027860000308600003886000060
:101ac0004186000049860000528600005a860000c8
:101ad000638600006b860000748600007c86000030
:101ae000858600008d860000968600009e86000098
:101af000a7860000af860000b8860000c1860000ff
:101b0000c9860000d2860000da860000e386000065
:101b1000eb860000f4860000fd86000005870000cb
:101b20000e870000178700001f870000288700002d
:101b30003087000039870000428700004a87000094
:101b4000538700005c870000648700006d870000f9
:101b5000768700007f87000087870000908700005d
:101b600099870000a1870000aa870000b3870000c2
:101b7000bc870000c4870000cd870000d687000026
:101b8000de870000e7870000f0870000f98700008b
:101b9000028800000a880000138800001c880000ea
:101ba000258800002d880000368800003f8800004e
:101bb00048880000518800005a88000062880000b0
:101bc0006b880000748800007d8800008688000013
:101bd0008f88000097880000a0880000a988000076
:101be000b2880000bb880000c4880000cd880000d7
:101bf000d6880000de880000e7880000f08800003a
:101c0000f9880000028900000b8900001489000097
:101c10001d890000268900002f89000038890000f6
:101c2000418900004a890000528900005b89000058
:101c3000648900006d890000768900007f890000ba
:101c400088890000918900009a890000a38900001a
:101c5000ac890000b5890000be890000c78900007a
:101c6000d0890000d9890000e2890000eb890000da
:101c7000f4890000fd890000068a00000f8a000038
:101c800040d3000040d3000040d3000040d3000008
:101c900040d3000040d3000040d3000040d30000f8
:101ca0003fd300003fd300003fd300003fd30000ec
:101cb0003fd300003ed300003ed300003ed30000df
:101cc0003ed300003dd300003dd300003dd30000d3
:101cd0003cd300003cd300003bd300003bd30000ca
:101ce0003bd300003ad300003ad3000039d30000c0
:101cf00039d3000038d3000037d3000037d30000b9
:101d000036d3000036d3000035d3000034d30000b2
:101d100034d3000033d3000032d3000032d30000ac
:101d200031d3000030d300002fd300002ed30000a9
:101d30002ed300002dd300002cd300002bd30000a5
:101d40002ad3000029d3000028d3000027d30000a5
:101d500026d3000025d3000024d3000023d30000a5
:101d600022d3000021d3000020d300001fd30000a5
:101d70001ed300001dd300001cd300001ad30000a6
:101d800019d3000018d3000017d3000015d30000aa
:101d900014d3000013d3000012d3000010d30000ae
:101da0000fd300000ed300000cd300000bd30000b3
:101db00009d3000008d3000006d3000005d30000bb
:101dc00003d3000002d3000000d30000ffd20000c4
:101dd000fdd20000fcd20000fad20000f8d20000d0
:101de000f7d20000f5d20000f3d20000f2d20000da
:101df000f0d20000eed20000ecd20000ead20000e7
:101e0000e9d20000e7d20000e5d20000e3d20000f2
:101e1000e1d20000dfd20000ddd20000dbd2000002
:101e2000dad20000d8d20000d6d20000d3d200000f
:101e3000d1d20000cfd20000cdd20000cbd2000022
:101e4000c9d20000c7d20000c5d20000c3d2000032
:101e5000c0d20000bed20000bcd20000bad2000046
:101e6000b7d20000b5d20000b3d20000b1d200005a
:101e7000aed20000acd20000a9d20000a7d2000070
:101e8000a5d20000a2d20000a0d200009dd2000086
:101e90009bd2000098d2000096d2000093d200009e
:101ea00091d200008ed200008bd2000089d20000b7
:101eb00086d2000083d2000081d200007ed20000d2
:101ec0007bd2000079d2000076d2000073d20000ed
:101ed00070d200006dd200006bd2000068d200000a
:101ee00065d2000062d200005fd200005cd2000028
:101ef00059d2000056d2000053d2000050d2000048
:101f00004dd200004ad2000047d2000044d2000067
:101f100041d200003ed200003ad2000037d2000089
:101f200034d2000031d200002ed200002ad20000ac
:101f300027d2000024d2000021d200001dd20000d0
:101f40001ad2000017d2000013d2000010d20000f5
:101f50000cd2000009d2000005d2000002d200001d
:101f6000ffd10000fbd10000f7d10000f4d1000048
:101f7000f0d10000edd10000e9d10000e6d1000071
:101f8000e2d10000ded10000dbd10000d7d100009b
:101f9000d3d10000cfd10000ccd10000c8d10000c7
:101fa000c4d10000c0d10000bcd10000b8d10000f5
:101fb000b5d10000b1d10000add10000a9d1000021
:101fc000a5d10000a1d100009dd1000099d1000051
:101fd00095d1000091d100008dd1000089d1000081
:101fe00084d1000080d100007cd1000078d10000b5
:101ff00074d1000070d100006bd1000067d10000e7
:1020000063d100005fd100005ad1000056d100001a
:1020100052d100004dd1000049d1000044d1000050
:1020200040d100003cd1000037d1000033d1000086
:102030002ed100002ad1000025d1000020d10000bf
:102040001cd1000017d1000013d100000ed10000f8
:1020500009d1000005d1000000d10000fbd0000034
:10206000f7d00000f2d00000edd00000e8d0000072
:10207000e3d00000dfd00000dad00000d5d00000af
:10208000d0d00000cbd00000c6d00000c1d00000ee
:10209000bcd00000b7d00000b2d00000add000002e
:1020a000a8d00000a3d000009ed0000099d000006e
:1020b00094d000008fd0000089d0000084d00000b0
:1020c0007fd000007ad0000074d000006fd00000f4
:1020d0006ad0000065d000005fd000005ad0000038
:1020e00055d000004fd000004ad0000044d000007e
:1020f0003fd0000039d0000034d000002ed00000c6
:1021000029d0000023d000001ed0000018d000000d
:1021100013d000000dd0000007d0000002d0000056
:10212000fccf0000f6cf0000f1cf0000ebcf0000a5
:10213000e5cf0000dfcf0000dacf0000d4cf0000f1
:10214000cecf0000c8cf0000c2cf0000bccf00003f
:10215000b6cf0000b0cf0000aacf0000a4cf00008f
:102160009ecf000098cf000092cf00008ccf0000df
:1021700086cf000080cf00007acf000074cf00002f
:102180006ecf000068cf000061cf00005bcf000081
:1021900055cf00004fcf000048cf000042cf0000d5
:1021a0003ccf000035cf00002fcf000029cf00002a
:1021b00022cf00001ccf000015cf00000fcf000081
:1021c00008cf000002cf0000fbce0000f5ce0000db
:1021d000eece0000e8ce0000e1ce0000dace000036
:1021e000d4ce0000cdce0000c6ce0000c0ce000090
:1021f000b9ce0000b2ce0000acce0000a5ce0000eb
:102200009ece000097ce000090ce000089ce000048
:1022100083ce00007cce000075ce00006ece0000a4
:1022200067ce000060ce000059ce000052ce000004
:102230004bce000044ce00003dce000035ce000065
:102240002ece000027ce000020ce000019ce0000c8
:1022500012ce00000ace000003ce0000fccd00002c
:10226000f5cd0000edcd0000e6cd0000dfcd000093
:10227000d7cd0000d0cd0000c8cd0000c1cd0000fa
:10228000b9cd0000b2cd0000aacd0000a3cd000062
:102290009bcd000094cd00008ccd000085cd0000ca
:1022a0007dcd000075cd00006ecd000066cd000034
:1022b0005ecd000057cd00004fcd000047cd00009f
:1022c0003fcd000038cd000030cd000028cd00000b
:1022d00020cd000018cd000010cd000008cd00007a
:1022e00000cd0000f8cc0000f0cc0000e8cc0000ed
:1022f000e0cc0000d8cc0000d0cc0000c8cc00005e
:10230000c0cc0000b8cc0000b0cc0000a8cc0000cd
:102310009fcc000097cc00008fcc000087cc000041
:102320007ecc000076cc00006ecc000065cc0000b6
:102330005dcc000055cc00004ccc000044cc00002b
:102340003bcc000033cc00002acc000022cc0000a3
:1023500019cc000011cc000008cc000000cc00001b
:10236000f7cb0000eecb0000e6cb0000ddcb000099
:10237000d4cb0000cccb0000c3cb0000bacb000014
:10238000b1cb0000a8cb0000a0cb000097cb000091
:102390008ecb000085cb00007ccb000073cb00000f
:1023a0006acb000061cb000058cb00004fcb00008f
:1023b00046cb00003dcb000034cb00002bcb00000f
:1023c00022cb000019cb00000fcb000006cb000091
:1023d000fdca0000f4ca0000ebca0000e1ca000018
:1023e000d8ca0000cfca0000c5ca0000bcca00009d
:1023f000b3ca0000a9ca0000a0ca000096ca000023
:102400008dca000083ca00007aca000070ca0000aa
:1024100067ca00005dca000054ca00004aca000032
:1024200040ca000037ca00002dca000023ca0000bd
:102430001aca000010ca000006ca0000fcc9000049
:10244000f2c90000e9c90000dfc90000d5c90000d9
:10245000cbc90000c1c90000b7c90000adc9000068
:10246000a3c9000099c900008fc9000085c90000f8
:102470007bc9000071c9000067c900005dc9000088
:1024800052c9000048c900003ec9000034c900001c
:102490002ac900001fc9000015c900000bc90000af
:1024a00000c90000f6c80000ecc80000e1c8000048
:1024b000d7c80000ccc80000c2c80000b7c80000e0
:1024c000adc80000a2c8000098c800008dc8000078
:1024d00083c8000078c800006dc8000063c8000011
:1024e00058c800004dc8000043c8000038c80000ac
:1024f0002dc8000022c8000017c800000dc8000049
:1025000002c80000f7c70000ecc70000e1c70000e8
:10251000d6c70000cbc70000c0c70000b5c7000089
:10252000aac700009fc7000094c7000089c7000029
:102530007dc7000072c7000067c700005cc70000cd
:1025400051c7000045c700003ac700002fc7000070
:1025500024c7000018c700000dc7000001c7000015
:10256000f6c60000ebc60000dfc60000d4c60000bf
:10257000c8c60000bdc60000b1c60000a6c6000067
:102580009ac600008ec6000083c6000077c6000011
:102590006bc6000060c6000054c6000048c60000bc
:1025a0003cc6000031c6000025c6000019c6000068
:1025b0000dc6000001c60000f5c50000e9c5000019
:1025c000ddc50000d1c50000c5c50000b9c50000cb
:1025d000adc50000a1c5000095c5000089c500007b
:1025e0007dc5000071c5000065c5000058c500002c
:1025f0004cc5000040c5000034c5000027c50000e0
:102600001bc500000fc5000002c50000f6c4000095
:10261000e9c40000ddc40000d1c40000c4c400004f
:10262000b8c40000abc400009ec4000092c4000007
:1026300085c4000079c400006cc400005fc40000c1
:1026400053c4000046c4000039c400002cc400007c
:1026500020c4000013c4000006c40000f9c3000039
:10266000ecc30000dfc30000d2c30000c5c30000fc
:10267000b8c30000abc300009ec3000091c30000bc
:1026800084c3000077c300006ac300005dc300007c
:1026900050c3000042c3000035c3000028c300003f
:1026a0001bc300000dc3000000c30000f3c2000004
:1026b000e5c20000d8c20000cac20000bdc20000ce
:1026c000b0c20000a2c2000095c2000087c2000094
:1026d00079c200006cc200005ec2000051c200005e
:1026e00043c2000035c2000028c200001ac2000028
:1026f0000cc20000fec10000f0c10000e3c10000f8
:10270000d5c10000c7c10000b9c10000abc10000c5
:102710009dc100008fc1000081c1000073c1000095
:1027200065c1000057c1000049c100003bc1000065
:102730002dc100001ec1000010c1000002c1000038
:10274000f4c00000e5c00000d7c00000c9c0000010
:10275000bbc00000acc000009ec000008fc00000e5
:1027600081c0000072c0000064c0000055c00000bd
:1027700047c0000038c000002ac000001bc0000095
:102780000cc00000febf0000efbf0000e0bf000073
:10279000d2bf0000c3bf0000b4bf0000a5bf00004f
:1027a00096bf000087bf000078bf00006abf00002e
:1027b0005bbf00004cbf00003dbf00002ebf00000b
:1027c0001fbf00000fbf000000bf0000f1be0000ef
:1027d000e2be0000d3be0000c4be0000b4be0000d4
:1027e000a5be000096be000087be000077be0000b8
:1027f00068be000058be000049be00003abe00009e
:102800002abe00001bbe00000bbe0000fcbd000085
:10281000ecbd0000dcbd0000cdbd0000bdbd000072
:10282000adbd00009ebd00008ebd00007ebd00005d
:102830006ebd00005fbd00004fbd00003fbd000049
:102840002fbd00001fbd00000fbd0000ffbc000039
:10285000efbc0000dfbc0000cfbc0000bfbc00002c
:10286000afbc00009fbc00008fbc00007fbc00001c
:102870006ebc00005ebc00004ebc00003ebc000010
:102880002dbc00001dbc00000dbc0000fcbb000006
:10289000ecbb0000dbbb0000cbbb0000babb000000
:1028a000aabb000099bb000089bb000078bb0000f8
:1028b00067bb000057bb000046bb000035bb0000f3
:1028c00025bb000014bb000003bb0000f2ba0000ef
:1028d000e1ba0000d1ba0000c0ba0000afba0000ef
:1028e0009eba00008dba00007cba00006bba0000ee
:1028f0005aba000048ba000037ba000026ba0000f1
:1029000015ba000004ba0000f3b90000e1b90000f4
:10291000d0b90000bfb90000adb900009cb90000fb
:102920008bb9000079b9000068b9000056b9000001
:1029300045b9000033b9000022b9000010b9000009
:10294000feb80000edb80000dbb80000c9b8000018
:10295000b8b80000a6b8000094b8000082b8000023
:1029600070b800005eb800004cb800003bb8000032
:1029700029b8000017b8000005b80000f2b7000041
:10298000e0b70000ceb70000bcb70000aab7000057
:1029900098b7000086b7000073b7000061b7000069
:1029a0004fb700003cb700002ab7000018b700007e
:1029b00005b70000f3b60000e0b60000ceb6000098
:1029c000bbb60000a9b6000096b6000083b60000b2
:1029d00071b600005eb600004bb6000038b60000cd
:1029e00026b6000013b6000000b60000edb50000ea
:1029f000dab50000c7b50000b4b50000a1b500000d
:102a00008eb500007bb5000068b5000055b500002c
:102a100042b500002fb500001cb5000008b500004d
:102a2000f5b40000e2b40000ceb40000bbb4000076
:102a3000a8b4000094b4000081b400006db400009c
:102a40005ab4000046b4000033b400001fb40000c4
:102a50000cb40000f8b30000e4b30000d1b30000f0
:102a6000bdb30000a9b3000095b3000081b300001e
:102a70006eb300005ab3000046b3000032b300004a
:102a80001eb300000ab30000f6b20000e2b200007c
:102a9000cdb20000b9b20000a5b2000091b20000b2
:102aa0007db2000068b2000054b2000040b20000e5
:102ab0002bb2000017b2000003b20000eeb100001c
:102ac000dab10000c5b10000b0b100009cb1000057
:102ad00087b1000073b100005eb1000049b1000091
:102ae00034b1000020b100000bb10000f6b00000ce
:102af000e1b00000ccb00000b7b00000a2b0000010
:102b00008db0000078b0000063b000004eb000004f
:102b100039b0000024b000000fb00000f9af000091
:102b2000e4af0000cfaf0000b9af0000a4af0000d9
:102b30008faf000079af000064af00004eaf00001f
:102b400039af000023af00000eaf0000f8ae000068
:102b5000e2ae0000cdae0000b7ae0000a1ae0000b6
:102b60008bae000075ae000060ae00004aae000003
:102b700034ae00001eae000008ae0000f2ad000052
:102b8000dcad0000c6ad0000afad000099ad0000a7
:102b900083ad00006dad000056ad000040ad0000fb
:102ba0002aad000013ad0000fdac0000e7ac000052
:102bb000d0ac0000baac0000a3ac00008cac0000ac
:102bc00076ac00005fac000048ac000032ac000006
:102bd0001bac000004ac0000edab0000d7ab000064
:102be000c0ab0000a9ab000092ab00007bab0000c3
:102bf00064ab00004dab000035ab00001eab000025
:102c000007ab0000f0aa0000d9aa0000c1aa00008a
:102c1000aaaa000093aa00007baa000064aa0000f0
:102c20004caa000035aa00001daa000006aa000058
:102c3000eea90000d7a90000bfa90000a7a90000c5
:102c40008fa9000078a9000060a9000048a9000031
:102c500030a9000018a9000000a90000e8a80000a1
:102c6000d0a80000b8a80000a0a8000088a8000014
:102c70006fa8000057a800003fa8000026a8000089
:102c80000ea80000f6a70000dda70000c5a7000001
:102c9000aca7000094a700007ba7000063a700007a
:102ca0004aa7000031a7000019a7000000a70000f4
:102cb000e7a60000cea60000b5a600009ca6000076
:102cc00083a600006aa6000051a6000038a60000f6
:102cd0001fa6000006a60000eda50000d3a5000079
:102ce000baa50000a1a5000088a500006ea50000ff
:102cf00055a500003ba5000022a5000008a5000086
:102d0000efa40000d5a40000bba40000a2a4000012
:102d100088a400006ea4000054a400003aa400009f
:102d200020a4000006a40000eca30000d2a3000031
:102d3000b8a300009ea3000084a300006aa30000c3
:102d400050a3000035a300001ba3000001a3000056
:102d5000e6a20000cca20000b1a2000097a20000f1
:102d60007ca2000062a2000047a200002ca200008a
:102d700012a20000f7a10000dca10000c1a1000028
:102d8000a6a100008ba1000070a1000055a10000c9
:102d90003aa100001fa1000004a10000e9a000006a
:102da000cea00000b2a0000097a000007ca0000010
:102db00060a0000045a0000029a000000ea00000b7
:102dc000f29f0000d69f0000bb9f00009f9f000065
:102dd000839f0000679f00004c9f0000309f000011
:102de000149f0000f89e0000dc9e0000c09e0000c2
:102df000a49e0000879e00006b9e00004f9e000076
:102e0000339e0000169e0000fa9d0000dd9d00002c
:102e1000c19d0000a49d0000889d00006b9d0000e6
:102e20004f9d0000329d0000159d0000f89c0000a1
:102e3000dc9c0000bf9c0000a29c0000859c000060
:102e4000689c00004b9c00002e9c0000109c000021
:102e5000f39b0000d69b0000b99b00009b9b0000e9
:102e60007e9b0000609b0000439b0000259b0000b0
:102e7000089b0000ea9a0000cc9a0000af9a00007c
:102e8000919a0000739a0000559a0000379a00004a
:102e9000199a0000fb990000dd990000bf9900001d
:102ea000a1990000839900006499000046990000f0
:102eb0002899000009990000eb980000cc980000c8
:102ec000ae9800008f9800007098000052980000a3
:102ed0003398000014980000f5970000d697000082
:102ee000b797000098970000799700005a97000064
:102ef0003b9700001b970000fc960000dd96000049
:102f0000bd9600009e9600007f9600005f96000030
:102f10003f9600002096000000960000e09500001b
:102f2000c0950000a195000081950000619500000a
:102f3000419500002195000000950000e0940000fc
:102f4000c0940000a09400007f9400005f940000f3
:102f50003e9400001e940000fd930000dd930000ed
:102f6000bc9300009b9300007b9300005a930000e9
:102f70003993000018930000f7920000d6920000e9
:102f8000b5920000939200007292000051920000ee
:102f9000309200000e920000ed910000cb910000f5
:102fa000aa91000088910000669100004591000000
:102fb0002391000001910000df900000bd9000000f
:102fc0009b90000079900000579000003490000022
:102fd00012900000f08f0000cd8f0000ab8f00003a
:102fe000888f0000668f0000438f0000208f000054
:102ff000fe8e0000db8e0000b88e0000958e000073
:10300000728e00004f8e00002c8e0000088e000093
:10301000e58d0000c28d00009f8d00007b8d0000bb
:10302000588d0000348d0000108d0000ed8c0000e4
:10303000c98c0000a58c0000818c00005d8c000014
:10304000398c0000158c0000f18b0000cd8b000046
:10305000a88b0000848b0000608b00003b8b00007d
:10306000178b0000f28a0000cd8a0000a98a0000b8
:10307000848a00005f8a00003a8a0000158a0000f6
:10308000f0890000cb890000a5890000808900003c
:103090005b8900003589000010890000ea88000083
:1030a000c58800009f8800007988000053880000d0
:1030b0002d88000007880000e1870000bb87000022
:1030c000958700006f870000488700002287000076
:1030d000fc860000d5860000ae86000088860000d1
:1030e000618600003a86000013860000ec8500002f
:1030f000c58500009e850000778500004f85000093
:103100002885000001850000d9840000b1840000fa
:103110008a840000628400003a8400001284000067
:10312000ea830000c28300009a83000072830000db
:103130004a83000021830000f9820000d082000051
:10314000a88200007f820000568200002d820000cd
:1031500004820000db810000b28100008981000050
:1031600060810000368100000d810000e3800000d6
:10317000ba80000090800000668000003c80000063
:1031800013800000e97f0000be7f0000947f0000f4
:103190006a7f0000407f0000157f0000eb7e00008a
:1031a000c07e0000957e00006a7e0000407e000028
:1031b000157e0000ea7d0000be7d0000937d0000ca
:1031c000687d00003c7d0000117d0000e57c000072
:1031d000ba7c00008e7c0000627c0000367c00001f
:1031e0000a7c0000de7b0000b17b0000857b0000d4
:1031f000597b00002c7b0000ff7a0000d37a00008e
:10320000a67a0000797a00004c7a00001f7a00004c
:10321000f2790000c4790000977900006979000014
:103220003c7900000e790000e0780000b2780000e0
:10323000847800005678000028780000fa770000b3
:10324000cb7700009d7700006e7700003f7700008d
:1032500010770000e2760000b2760000837600006e
:103260005476000025760000f5750000c675000054
:103270009675000066750000367500000675000042
:10328000d6740000a6740000757400004574000038
:1032900014740000e3730000b37300008273000035
:1032a000517300001f730000ee720000bd72000039
:1032b0008b7200005a72000028720000f671000044
:1032c000c471000092710000607100002d71000057
:1032d000fb700000c8700000957000006270000074
:1032e0002f700000fc6f0000c96f0000966f000097
:1032f000626f00002f6f0000fb6e0000c76e0000c1
:10330000936e00005f6e00002a6e0000f66d0000f4
:10331000c16d00008d6d0000586d0000236d000030
:10332000ee6c0000b96c0000836c00004e6c000075
:10333000186c0000e26b0000ac6b0000766b0000c4
:10334000406b00000a6b0000d36a00009c6a00001a
:10335000666a00002f6a0000f8690000c06900007a
:1033600089690000516900001a690000e2680000e4
:10337000aa68000072680000396800000168000057
:10338000c86700008f670000566700001d670000d7
:10339000e4660000aa66000071660000376600005f
:1033a000fd650000c3650000896500004e650000f2
:1033b00013650000d96400009e6400006264000090
:1033c00027640000ec630000b06300007463000039
:1033d00038630000fc620000bf62000083620000ee
:1033e0004662000009620000cc6100008e610000ae
:1033f0005161000013610000d5600000976000007b
:10340000596000001a600000db5f00009c5f000054
:103410005d5f00001e5f0000de5e00009f5e00003a
:103420005f5e00001e5e0000de5d00009d5d00002e
:103430005c5d00001b5d0000da5c0000995c000030
:10344000575c0000155c0000d35b0000905b00003f
:103450004e5b00000b5b0000c85a0000845a00005d
:10346000415a0000fd590000b9590000745900008c
:1034700030590000eb580000a658000061580000c9
:103480001b580000d55700008f5700004957000017
:1034900002570000bb560000745600002c56000076
:1034a000e55500009c550000545500000c550000e7
:1034b000c35400007954000030540000e65300006b
:1034c0009c5300005253000007530000bc52000000
:1034d0007152000025520000d95100008d510000aa
:1034e00040510000f3500000a6500000585000006a
:1034f0000a500000bc4f00006d4f00001e4f00003e
:10350000cf4e00007f4e00002f4e0000de4d000029
:103510008d4d00003c4d0000ea4c0000984c00002e
:10352000464c0000f34b0000a04b00004c4b000049
:10353000f84a0000a34a00004f4a0000f949000081
:10354000a34900004d490000f64800009f480000d4
:1035500048480000ef470000974700003e47000042
:10356000e44600008a4600002f460000d4450000d3
:10357000794500001d450000c04400006344000080
:1035800005440000a643000047430000e842000055
:103590008842000027420000c6410000644100004c
:1035a000014100009e4000003a400000d53f00006d
:1035b000703f00000a3f0000a33e00003c3e0000b8
:1035c000d43d00006b3d0000013d0000973c000031
:1035d0002b3c0000bf3b0000523b0000e43a0000df
:1035e000763a0000063a00009639000024390000bf
:1035f000b23800003f380000ca37000055370000dd
:10360000de36000067360000ee350000743500003d
:10361000fa3400007d3400000034000081330000e3
:103620000133000080320000fd31000079310000dc
:10363000f43000006d300000e42f00005a2f00002d
:10364000ce2e0000402e0000b02d00001f2d0000e7
:103650008c2c0000f62b00005f2b0000c52a000018
:10366000292a00008b290000ea28000047280000d2
:10367000a1270000f82600004b2600009c25000032
:10368000ea240000342400007a230000bc22000059
:10369000fa2100003321000067200000971f00007e
:1036a000c01e0000e31d0000001d0000151c0000ee
:1036b000231b0000271a0000211900001018000029
:1036c000f2160000c6150000881400003513000033
:1036d000c91100003d100000870e0000950c00008d
:1036e000460a00004407000000000000ff7f0000c1
:1036f000ff7f0000ff7f00005755000002400000e0
:1037000036330000ae2a000096240000042000009a
:10371000761c00009f1900004b1700005b1500008d
:10372000b81300005012000019110000081000002a
:10373000180f0000420e0000830d0000d70c00009f
:103740003b0c0000ae0b00002d0b0000b70a000080
:103750004a0a0000e6090000890900003309000058
:10376000e20800009808000052080000100800005d
:10377000d207000099070000620700002e07000032
:10378000fe060000d0060000a40600007a06000035
:10379000530600002d0600000a060000e7050000a1
:1037a000c7050000a80500008a0500006d0500009f
:1037b00052050000380500001f0500000605000046
:1037c000ef040000d9040000c3040000ae040000b0
:1037d0009a040000870400007404000062040000e2
:1037e00051040000400400003004000020040000e8
:1037f0001104000002040000f4030000e6030000ce
:10380000d8030000cb030000bf030000b203000098
:10381000a60300009b0300008f0300008403000048
:103820007a0300006f030000650300005b030000e3
:1038300052030000480300003f030000360300006d
:103840002e030000250300001d03000015030000e7
:103850000d03000005030000fe020000f602000058
:10386000ef020000e8020000e1020000db020000bd
:10387000d4020000ce020000c7020000c102000016
:10388000bb020000b6020000b0020000aa02000065
:10389000a50200009f0200009a02000095020000ad
:1038a000900200008b0200008602000081020000ee
:1038b0007c02000078020000730200006f0200002a
:1038c0006b02000066020000620200005e0200005f
:1038d0005a02000056020000520200004f0200008f
:1038e0004b020000470200004402000040020000ba
:1038f0003d020000390200003602000032020000e2
:103900002f0200002c020000290200002602000005
:1039100023020000200200001d0200001a02000025
:103920001702000015020000120200000f02000042
:103930000c0200000a02000007020000050200005d
:103940000202000000020000fe010000fb01000076
:10395000f9010000f7010000f4010000f20100008d
:10396000f0010000ee010000ec010000ea0100009f
:10397000e8010000e6010000e4010000e2010000af
:10398000e0010000de010000dc010000da010000bf
:10399000d8010000d7010000d5010000d3010000cc
:1039a000d1010000d0010000ce010000cc010000d8
:1039b000cb010000c9010000c8010000c6010000e1
:1039c000c5010000c3010000c2010000c0010000e9
:1039d000bf010000bd010000bc010000bb010000f0
:1039e000b9010000b8010000b7010000b5010000f6
:1039f000b4010000b3010000b2010000b0010000fa
:103a0000af010000ae010000ad010000ac010000fc
:103a1000ab010000a9010000a8010000a7010000ff
:103a2000a6010000a5010000a4010000a301000000
:103a3000a2010000a1010000a00100009f01000000
:103a40009e0100009d0100009c0100009b01000000
:103a50009b0100009a0100009901000098010000fc
:103a600097010000960100009501000095010000fb
:103a700094010000930100009201000091010000f8
:103a800091010000900100008f0100008e010000f4
:103a90008e0100008d0100008c0100008c010000ef
:103aa0008b0100008a0100008a01000089010000ea
:103ab00088010000880100008701000087010000e4
:103ac00086010000850100008501000084010000de
:103ad00084010000830100008301000082010000d6
:103ae00082010000810100008101000080010000ce
:103af000800100007f0100007f0100007e010000c6
:103b00007e0100007d0100007d0100007c010000bd
:103b10007c0100007b0100007b0100007b010000b4
:103b20007a0100007a0100007901000079010000ab
:103b300079010000780100007801000077010000a1
:103b40007701000077010000760100007601000097
:103b5000760100007501000075010000750100008c
:103b60007401000074010000740100007401000081
:103b70007301000073010000730100007201000076
:103b8000720100007201000072010000710100006a
:103b9000710100007101000071010000700100005e
:103ba0007001000070010000700100007001000051
:103bb0006f0100006f0100006f0100006f01000045
:103bc0006f0100006e0100006e0100006e01000038
:103bd0006e0100006e0100006e0100006d0100002a
:103be0006d0100006d0100006d0100006d0100001d
:103bf0006d0100006d0100006c0100006c0100000f
:103c00006c0100006c0100006c0100006c01000000
:103c10006c0100006c0100006b0100006b010000f2
:103c20006b0100006b0100006b0100006b010000e4
:103c30006b0100006b0100006b0100006b010000d4
:103c40006b0100006b0100006b0100006b010000c4
:103c50006a0100006a0100006a0100006a010000b8
:103c60006a0100006a0100006a0100006a010000a8
:103c70006a0100006a0100006a0100006a01000098
:103c80006a0100006a0100006a0100006a01000088
:103c90006a0100006a0100006a0100006a01000078
:103ca0006a0100006a0100006a0100006a01000068
:103cb0006a0100006a0100006a0100006a01000058
:103cc0006a0100006a0100006a0100006a01000048
:103cd0006a0100006a0100006a0100006a01000038
:103ce0006b0100006b0100006b0100006b01000024
:103cf0006b0100006b0100006b0100006b01000014
:103d00006b0100006b0100006b0100006b01000003
:103d10006b0100006b0100006b0100006b010000f3
:103d20006c0100006c0100006c0100006c010000df
:103d30006c0100006c0100006c0100006c010000cf
:103d40006c0100006c0100006d0100006d010000bd
:103d50006d0100006d0100006d0100006d010000ab
:103d60006d0100006d0100006d0100006e0100009a
:103d70006e0100006e0100006e0100006e01000087
:103d80006e0100006e0100006e0100006f01000076
:103d90006f0100006f0100006f0100006f01000063
:103da0006f0100006f010000700100007001000051
:103db000700100007001000070010000700100003f
:103dc000700100007101000071010000710100002c
:103dd000710100007101000071010000720100001a
:103de0007201000072010000720100007201000007
:103df00072010000730100007301000073010000f4
:103e000073010000730100007401000074010000e0
:103e100074010000740100007401000074010000ce
:103e200075010000750100007501000075010000ba
:103e300075010000760100007601000076010000a7
:103e40007601000076010000770100007701000094
:103e50007701000077010000770100007801000081
:103e6000780100007801000078010000790100006d
:103e7000790100007901000079010000790100005a
:103e80007a0100007a0100007a0100007a01000046
:103e90007b0100007b0100007b0100007b01000032
:103ea0007b0100007c0100007c0100007c0100001f
:103eb0007c0100007d0100007d0100007d0100000b
:103ec0007d0100007e0100007e0100007e010000f7
:103ed0007e0100007f0100007f0100007f010000e3
:103ee0007f010000800100008001000080010000cf
:103ef000000000009201000024030000b60400004e
:103f000048060000d90700006a090000fb0a00000b
:103f10008c0c00001c0e0000ab0f00003a110000da
:103f2000c812000055140000e21500006e170000d2
:103f3000f9180000821a00000b1c0000931d0000fd
:103f40001a1f00009f20000023220000a62300006b
:103f500028250000a826000026280000a32900002c
:103f60001f2b0000992c0000112e0000872f00004d
:103f7000fb3000006e320000df3300004d350000e2
:103f8000ba360000243800008c390000f23a0000f4
:103f9000563c0000b83d0000173f00007340000091
:103fa000ce410000254300007a440000cd450000ca
:103fb0001c47000069480000b4490000fb4a0000ab
:103fc0003f4c0000814d0000bf4e0000fb4f000041
:103fd00033510000685200009b530000c954000098
:103fe000f55500001d5700004258000064590000bc
:103ff000825a00009c5b0000b35c0000c75d0000bb
:10400000d75e0000e35f0000eb600000f06100009d
:10401000f1620000ee630000e8640000dd6500006e
:10402000cf660000bc670000a66800008b69000036
:104030006d6a00004a6b0000236c0000f86c000001
:10404000c96d0000966e00005e6f000022700000d7
:10405000e27000009d7100005472000007730000c0
:10406000b57300005f74000004750000a5750000c2
:1040700041760000d87600006b770000fa770000e8
:10408000847800000979000089790000057a000031
:104090007c7a0000ee7a00005c7b0000c57b0000ab
:1040a000297c0000887c0000e37c0000397d000052
:1040b000897d0000d57d00001d7e00005f7e000030
:1040c0009c7e0000d57e0000097f0000377f000045
:1040d000617f0000867f0000a67f0000c17f000096
:1040e000d87f0000e97f0000f57f0000fd7f000021
:1040f000ff7f0000fd7f0000f57f0000e97f0000ea
:10410000d87f0000c17f0000a67f0000867f0000ee
:10411000617f0000377f0000097f0000d57e00002e
:104120009c7e00005f7e00001d7e0000d57d0000ab
:10413000897d0000397d0000e37c0000887c000060
:10414000297c0000c57b00005c7b0000ee7a00004b
:104150007c7a0000057a0000897900000979000066
:1041600084780000fa7700006b770000d8760000b2
:1041700041760000a5750000047500005f74000022
:10418000b573000007730000547200009d710000b9
:10419000e2700000227000005e6f0000966e00006a
:1041a000c96d0000f86c0000236c00004a6b000031
:1041b0006d6a00008b690000a6680000bc67000003
:1041c000cf660000dd650000e8640000ee630000db
:1041d000f1620000f0610000eb600000e35f0000ae
:1041e000d75e0000c75d0000b35c00009c5b000070
:1041f000825a000064590000425800001d57000018
:10420000f5550000c95400009b530000685200009f
:1042100033510000fb4f0000bf4e0000814d0000f5
:104220003f4c0000fb4a0000b44900006948000010
:104230001c470000cd4500007a44000025430000e3
:10424000ce41000073400000173f0000b83d000061
:10425000563c0000f23a00008c390000243800007f
:10426000ba3600004d350000df3300006e3200002a
:10427000fb300000872f0000112e0000992c000059
:104280001f2b0000a329000026280000a8260000fc
:1042900028250000a6230000232200009f20000004
:1042a0001a1f0000931d00000b1c0000821a000062
:1042b000f91800006e170000e21500005514000008
:1042c000c81200003a110000ab0f00001c0e0000e5
:1042d0008c0c0000fb0a00006a090000d9070000ee
:1042e00048060000b604000024030000920100000c
:1042f000000000006efe0000dcfc00004afb000035
:10430000b8f9000027f8000096f6000005f5000057
:1043100074f30000e4f1000055f00000c6ee000068
:1043200038ed0000abeb00001eea000092e8000050
:1043300007e700007ee50000f5e300006de2000005
:10434000e6e0000061df0000dddd00005adc000077
:10435000d8da000058d90000dad700005dd6000096
:10436000e1d4000067d30000efd1000079d0000055
:1043700005cf000092cd000021cc0000b3ca0000a0
:1043800046c90000dcc7000074c600000ec500006e
:10439000aac3000048c20000e9c000008dbf0000b1
:1043a00032be0000dbbc000086bb000033ba000058
:1043b000e4b8000097b700004cb6000005b5000057
:1043c000c1b300007fb2000041b1000005b00000a1
:1043d000cdae000098ad000065ac000037ab00002a
:1043e0000baa0000e3a80000bea700009ca60000e6
:1043f0007ea5000064a400004da3000039a20000c7
:1044000029a100001da00000159f0000109e0000c3
:104410000f9d0000129c0000189b0000239a0000d2
:1044200031990000449800005a97000075960000ea
:1044300093950000b6940000dd93000008930000ff
:10444000379200006a910000a2900000de8f000009
:104450001e8f0000638e0000ac8d0000f98c000000
:104460004b8c0000a18b0000fc8a00005b8a0000de
:10447000bf89000028890000958800000688000098
:104480007c870000f786000077860000fb8500002f
:104490008485000012850000a48400003b84000095
:1044a000d7830000788300001d830000c7820000ce
:1044b000778200002b820000e3810000a1810000d0
:1044c000648100002b810000f7800000c98000009b
:1044d0009f8000007a8000005a8000003f8000002a
:1044e00028800000178000000b800000038000007f
:1044f00001800000038000000b8000001780000096
:10450000288000003f8000005a8000007a80000070
:104510009f800000c9800000f78000002b81000010
:1045200064810000a1810000e38100002b82000073
:1045300077820000c78200001d830000788300009e
:10454000d78300003b840000a48400001285000093
:1045500084850000fb85000077860000f786000058
:104560007c870000068800009588000028890000ec
:10457000bf8900005b8a0000fc8a0000a18b00005c
:104580004b8c0000f98c0000ac8d0000638e0000a5
:104590001e8f0000de8f0000a29000006a910000d4
:1045a0003792000008930000dd930000b6940000ed
:1045b00093950000759600005a97000044980000fb
:1045c00031990000239a0000189b0000129c000003
:1045d0000f9d0000109e0000159f00001da0000010
:1045e00029a1000039a200004da3000064a400002e
:1045f0007ea500009ca60000bea70000e3a8000066
:104600000baa000037ab000065ac000098ad0000bd
:10461000cdae000005b0000041b100007fb2000047
:10462000c1b3000005b500004cb6000097b700000c
:10463000e4b8000033ba000086bb0000dbbc000019
:1046400032be00008dbf0000e9c0000048c200007b
:10465000aac300000ec5000074c60000dcc700003d
:1046600046c90000b3ca000021cc000092cd000072
:1046700005cf000079d00000efd1000067d3000023
:10468000e1d400005dd60000dad7000058d9000060
:10469000d8da00005adc0000dddd000061df000038
:1046a000e6e000006de20000f5e300007ee50000ba
:1046b00007e7000092e800001eea0000abeb0000f4
:1046c00038ed0000c6ee000055f00000e4f10000f7
:1046d00074f3000005f5000096f6000027f80000ce
:1046e000b8f900004afb0000dcfc00006efe000090
:1046f00000000000000000000000000000000000ba
:1047000000000000000000000000000000000000a9
:104710004e6f000020760000616c0000756500009f
:104720007320000070610000737300006564000076
:1047300020740000686500002074000065730000ac
:10474000742e00000d0a0000005400007279000071
:104750002074000068650000206600006f6c000097
:104760006c6f0000776900006e6700003a0d000072
:104770000a000000706900002d72000061740000e2
:10478000696f000020360000330d00000a000000b1
:10479000727500006e2d0000706900002d7400001d
:1047a00065730000740d00000a00000070690000cd
:1047b0002d72000061740000696f00002036000057
:1047c000340d00000a000000706900002d72000026
:1047d00061740000696f000020360000350d000094
:1047e0000a0000004a75000073740000206b00008e
:1047f0006565000070200000676f0000696e0000b2
:10480000672e00002020000049660000206e000096
:104810006f740000686900006e670000207000007f
:10482000617300007365000073200000746800006d
:1048300065200000746500007374000020610000b2
:104840006674000065720000207900006f7500003a
:10485000206800006176000065200000747200008e
:104860006965000064200000706900002d7200007e
:1048700061740000696f0000206100006c6c000032
:104880002074000068650000207700006179000056
:10489000207400006f2c000020730000617900007c
:1048a0002c20000032300000302c00000d0a0000e7
:1048b00000690000742000006d6100007920000094
:1048c0006265000020740000686100007420000030
:1048d000746800006520000050490000207400004a
:1048e00065730000742000006973000020740000ec
:1048f0006f6f00002073000074720000696e00008a
:10490000676500006e740000206600006f72000092
:10491000207900006f750000722000006d6f0000ac
:10492000746f0000722e000020200000456d000012
:10493000616900006c2000006d65000020610000ce
:104940007420000070610000756c0000616e000052
:104950006473000061620000726900006e61000013
:1049600073650000767300007475000066660000d1
:10497000406700006d610000696c00002e6300005c
:104980006f6d00002e0d00000a000000546800004a
:10499000652000007465000073740000207700003b
:1049a0006173000020610000207300007563000047
:1049b00063650000737300002e2000002049000092
:1049c00066200000796f0000752000006172000011
:1049d000652000007374000061790000696e0000ba
:1049e00067200000776900007468000020740000f0
:1049f00068690000732000006275000073200000e9
:104a0000766f00006c74000061670000652c000088
:104a100020740000797000006520000027730000fa
:104a200061760000652700003a0d00000a000000d2
:104a300049660000207900006f75000020630000c7
:104a4000686100006e67000065200000796f00005b
:104a5000757200002062000075730000207600006f
:104a60006f6c000074610000676500002c2000007e
:104a7000796f000075200000736800006f750000fa
:104a80006c6400002072000065720000756e00000a
:104a90002074000068650000206300006f6d000056
:104aa0006d6100006e640000202700007275000038
:104ab0006e2d0000706900002d7400006573000009
:104ac000742700002e0d00000a000000596f00003e
:104ad00075720000207200006f7400006f72000099
:104ae00020740000657300007420000066610000ff
:104af000696c0000656400002e0d00000a000000d3
:104b0000596f000075720000207200006f74000081
:104b10006f720000207400006573000074200000b4
:104b200077610000732000006120000073750000b1
:104b30006363000065730000732100002020000003
:104b4000547900007065000020270000636f0000aa
:104b50006e6600006967000027200000746f000087
:104b60002073000065650000207400006865000087
:104b7000206e000065770000207200006f74000056
:104b80006f72000020740000696d00006520000055
:104b9000636f00006e730000746100006e740000ab
:104ba0002e0d00000a000000546f0000207300006a
:104bb0006176000065200000746800006520000038
:104bc0006e650000776c000079200000666f0000c1
:104bd000756e000064200000726f0000746f0000aa
:104be00072200000746900006d6500002063000001
:104bf0006f6e000073740000616e0000742c000082
:104c00002074000079700000652000002773000008
:104c100061760000652700002e0d00000a000000ec
:104c2000596f000075720000206100006e6700007f
:104c30006c650000206f0000666600007365000070
:104c4000742000007465000073740000206600008a
:104c5000616900006c650000642e00000d0a000010
:104c6000005900006f75000072200000616e0000a6
:104c7000676c0000652000006f660000667300002e
:104c8000657400002074000065730000742000004b
:104c90007761000073200000612000007375000040
:104ca0006363000065730000732100002020000092
:104cb000547900007065000020270000636f000039
:104cc0006e6600006967000027200000746f000016
:104cd0002073000065650000207400006865000016
:104ce000206e000065770000206100006e67000004
:104cf0006c650000206f00006666000073650000b0
:104d0000742e00000d0a0000005400006f20000007
:104d10007361000076650000207400006865000083
:104d2000206e0000657700006c79000020660000ae
:104d30006f7500006e640000206100006e67000067
:104d40006c650000206f000066660000736500005f
:104d5000742c0000207400007970000065200000b1
:104d60002773000061760000652700002e0d00000b
:104d70000a0000004d6f0000746f000072200000f8
:104d8000536100006c690000656e000063790000eb
:104d90002054000065730000742000005469000076
:104da0006d650000202800006c6f00007765000032
:104db000722000006973000020620000657400002a
:104dc00074650000722900003a200000007800009d
:104dd00078780000787800000d0a00000054000088
:104de000687200006f740000746c000065200000a1
:104df0006f750000742000006f66000020720000d4
:104e0000616e00006765000021200000497300000a
:104e10002069000074200000756e0000706c0000b6
:104e20007567000067650000643f00000d0a000020
:104e3000004400006573000061740000757200009a
:104e400061740000696f00006e200000446500007e
:104e50007465000063740000696f00006e2000003c
:104e600046610000756c00007421000020200000e5
:104e70005468000061740000277300002061000086
:104e800063740000756100006c6c00007920000004
:104e900070720000657400007479000020620000e8
:104ea000616400002e0d00000a0000005541000062
:104eb0005254000020660000617500006c74000010
:104ec0002e200000204900007320000074680000bc
:104ed000652000007365000072690000616c0000cd
:104ee00020630000616200006c6500002075000016
:104ef0006e7000006c75000067670000656400005c
:104f00003f0d00000a000000556e000064650000bf
:104f1000727600006f6c000074610000676500002d
:104f200020460000617500006c7400002e20000017
:104f300020450000697400006865000072200000d0
:104f4000796f0000757200002035000076200000a7
:104f50006f720000203200003476000020730000e1
:104f600075700000706c0000792000006472000011
:104f70006f7000007065000064200000746f000016
:104f80006f2000006c6f0000772e00000d0a0000fb
:104f9000004f00007665000072630000757200002b
:104fa000726500006e7400002066000061750000ec
:104fb0006c7400002e200000205400006865000082
:104fc00020680000617200006477000061720000d8
:104fd000652000006f7600006572000063750000b8
:104fe00072720000656e0000742000007072000094
:104ff0006f74000065630000746900006f6e00004c
:10500000206a0000757300007420000063610000d6
:105010006d650000206f00006e200000616e0000d2
:1050200064200000736100007665000064200000c9
:10503000746800006520000064610000792e0000a3
:105040000d0a000000430000757200007265000048
:105050006e74000020730000656e0000736f000026
:105060007220000066610000756c0000742e000064
:105070002020000049730000206100002063000030
:1050800075720000726500006e74000020730000ed
:10509000656e0000736f000072200000756e0000e6
:1050a000706c00007567000067650000643f0000d9
:1050b0000d0a000000480000696700006820000039
:1050c00070650000646100006c2000006c6f0000df
:1050d000636b00006f7500007420000066610000c3
:1050e000756c0000742e000020200000496700004d
:1050f0006e6f000072650000207400006869000097
:1051000073200000666f0000722000006e6f0000c8
:10511000772e000020200000497400002773000053
:10512000206e00006f7400002072000065610000b6
:105130006c6c0000792000006120000066610000b6
:10514000756c0000742e00002020000068610000d3
:10515000686100002e0d00000a000000526f000080
:10516000746f000072200000666c0000757800000b
:10517000206100006e6700006c6500002066000082
:10518000617500006c7400002e2000002073000088
:105190006f6d000065740000686900006e670000b4
:1051a000207700006569000072640000206800003c
:1051b00061700000706500006e65000064200000f2
:1051c00077690000746800002074000068650000c2
:1051d000207200006f7400006f72000020660000f3
:1051e0006c75000078200000616e0000676c0000a4
:1051f000652e00000d0a00000054000068650000e4
:1052000072650000207700006173000020730000c9
:105210006f6d00006520000068610000726400008e
:105220007761000072650000206300006175000076
:10523000736500006420000066610000756c00006a
:10524000742c0000206e00006f740000206f0000be
:1052500072690000676900006e61000074690000f7
:105260006e670000206f00006e2000007468000070
:10527000652000006d690000637200006f6300002c
:105280006f6e0000747200006f6c00006c650000af
:1052900072200000286e00006f7400002073000070
:1052a0006574000020620000792000006d65000038
:1052b000210d00000a0000005020000049200000dd
:1052c0004f76000065720000666c00006f7700008a
:1052d00020660000617500006c7400002e20000044
:1052e0002049000074270000732000007265000050
:1052f000616c00006c790000206e00006f7400008b
:105300002074000072610000636b0000696e000091
:10531000672000004964000052650000662000001c
:10532000616e0000642000004971000052650000b9
:1053300066200000776500006c6c000020610000b2
:1053400074200000616c00006c2e00000d0a00004b
:10535000005000004443000020460000617500003a
:105360006c7400002e200000204900002074000012
:10537000686900006e6b0000204900002067000093
:105380006f7400002072000069640000206f00004c
:10539000662000007468000069730000206f000040
:1053a0006e6500002e0d00000a0000004d6f000029
:1053b000746f0000722000004f76000065720000dc
:1053c0007370000065650000642000004661000005
:1053d000756c0000742e000020200000546800004e
:1053e000652000006d6f0000746f000072200000e7
:1053f000525000004d200000676f00007420000034
:10540000746f00006f20000068690000676800008a
:10541000210d00000a0000004d610000676e0000d1
:1054200065740000697a0000696e00006720000062
:105430004375000072720000656e00007420000069
:1054400066610000756c0000742e000020200000d2
:1054500049740000206700006f74000020630000a2
:10546000726100007a79000020680000696700001e
:1054700068200000666f000072200000736f00005b
:105480006d6500002072000065610000736f000010
:105490006e2e00000d0a0000004500006e63000043
:1054a0006f6400006572000020630000616200000c
:1054b0006c650000207500006e7000006c750000c7
:1054c00067670000656400002e200000204900008e
:1054d000276d0000206e00006f7400002075000032
:1054e000736900006e6700002074000068690000a6
:1054f000732000006f6e00006520000061740000e2
:105500002074000068650000206d00006f6d0000d1
:10551000656e0000742e00000d0a000000000000ff
:105520007361000076650000006d00006f7400007c
:105530006f7200002d74000079700000650000009b
:105540006b700000006b000069000000616e0000dd
:10555000676c0000652d00006f6600006673000038
:105560006574000000730000616c00006965000054
:105570006e63000079000000637500007272000025
:10558000656e0000742d0000736500006e730000ee
:105590006f7200002d6100006d700000732d00001f
:1055a00070650000722d0000766f00006c740000c2
:1055b000006d0000617800002d720000656700003a
:1055c000656e00002d7000006f73000069740000ac
:1055d000696f00006e0000006d6900006e2d000014
:1055e00072650000676500006e2d0000706f00009e
:1055f00073690000746900006f6e0000006d0000a8
:10560000696e00002d740000687200006f74000065
:10561000746c0000652d0000706f0000736900005d
:10562000746900006f6e0000006d0000617800007a
:105630002d740000687200006f740000746c00002c
:10564000652d0000706f0000736900007469000030
:105650006f6e000000660000617500006c74000051
:105660002d740000687200006f740000746c0000fc
:10567000652d0000706f0000736900007469000000
:105680006f6e0000006d0000617800002d62000068
:105690006174000074650000727900002d610000e3
:1056a0006d700000730000006d610000782d000037
:1056b000626100007474000065720000792d0000c2
:1056c000616d0000707300002d72000065670000be
:1056d000656e0000006d0000617800002d6d000017
:1056e0006f7400006f7200002d6100006d7000008b
:1056f000730000006d610000782d00006d6f0000e8
:10570000746f0000722d0000616d00007073000066
:105710002d72000065670000656e000000700000db
:105720007265000063680000617200006765000038
:105730002d740000696d000065000000726f0000ac
:10574000746f0000722d0000746900006d65000028
:105750002d6300006f6e000073740000616e000026
:1057600074000000706f00006c6500002d70000078
:105770006169000072730000006d00006178000034
:105780002d720000706d000000740000687200004f
:105790006f740000746c0000652d000074790000c7
:1057a00070650000006500006e6300006f6400001b
:1057b000657200002d740000696300006b730000c7
:1057c00000700000692d0000726100007469000023
:1057d0006f000000727500006e2d000070690000ff
:1057e0002d740000657300007400000072750000e5
:1057f0006e2d0000706900002d74000065730000bc
:105800007432000000720000756e00002d720000fe
:105810006f7400006f7200002d740000657300004b
:1058200074000000596f000075720000206d0000c8
:105830006f7400006f720000207400007970000027
:10584000652000006973000020630000757200008d
:10585000726500006e7400006c7900002073000017
:1058600065740000207400006f2000007065000067
:10587000726d0000616e0000656e00007420000013
:105880006d610000676e0000657400002e2000004e
:105890002054000068690000732000007465000057
:1058a000737400002069000073200000666f000020
:1058b00072200000616e00002041000043200000c3
:1058c000696e00006475000063740000696f000079
:1058d0006e2000006d6f0000746f000072210000e8
:1058e0000d0a0000005400006f20000063680000f3
:1058f000616e000067650000207900006f75000090
:10590000722000006d6f0000746f000072200000b4
:10591000746f00002041000043200000696e000009
:105920006475000063740000696f00006e2c000055
:105930002074000068650000206300006f6d0000a7
:105940006d6100006e64000020690000732000009b
:10595000276d00006f7400006f7200002d7400004e
:105960007970000065200000312700000d0a00005a
:1059700000720000756e00002d6100006e6700006f
:105980006c6500002d6f0000666600007365000006
:10599000742d00007465000073740000005900004d
:1059a0006f750000722000006d6f0000746f0000c2
:1059b000722000007479000070650000206900000a
:1059c0007320000041430000206900006e64000065
:1059d00075630000746900006f6e00002e200000e7
:1059e0002054000068690000732000007465000006
:1059f000737400002069000073200000666f0000cf
:105a0000722000006120000070650000726d0000cf
:105a1000616e0000656e0000742000006d61000082
:105a2000676500007420000041430000206d000005
:105a30006f7400006f720000210d00000a0000006a
:105a4000546f000020630000686100006e67000072
:105a500065200000796f000075720000206d000065
:105a60006f7400006f720000207400006f2000004f
:105a700070650000726d0000616e0000656e0000d0
