:100000000EC013C012C011C010C00FC00EC00DC072
:100010000CC00BC00AC009C008C007C006C011242C
:100020001FBECFEDCDBF02D046C0EACFDF93CF9346
:10003000CDB7DEB72FD00DD0E8E3F0E087E18083C5
:10004000000000000000E8E3F0E08FE08083A89566
:10005000F3CFDF93CF93CDB7DEB7E7E3F0E01082C5
:10006000E8E3F0E08FE180830000E7E3F0E088E17F
:100070008083CF91DF910895DF93CF93CDB7DEB723
:10008000A89588E10FB6F89481BD11BC0FBECF9141
:10009000DF910895DF93CF93CDB7DEB7A89588E1C0
:1000A00090E028E00FB6F894A89581BD0FBE21BD61
:0A00B000CF91DF910895F894FFCF7F
:00000001FF
